:10000000E010002095010000A3010000A501000000
:10001000A7010000A9010000AB01000000000000E2
:10002000000000000000000000000000AD01000022
:10003000AF01000000000000B1010000B3010000AA
:10004000B5010000B7010000B9010000BB010000CC
:10005000BD010000BF010000C1010000C30100009C
:10006000C5010000C7010000C9010000CB0100006C
:10007000CD010000CF010000D1010000D30100003C
:10008000D5010000D7010000D9010000DB0100000C
:10009000DD010000DF010000E1010000E3010000DC
:1000A000E5010000E7010000E9010000EB010000AC
:1000B000ED010000EF010000F1010000F30100007C
:1000C000F5010000F7010000DFF800F07D000020DE
:1000D000DFF800F02F000020F8B504000D00160036
:1000E00010E02800FFF7F0FF3700B7F5006F01DDE3
:1000F0004FF40067220039002800FFF7E9FF7D195F
:100100003C19F61B012EECDAF1BD000038B54FF4B6
:1001100080441C48006850F020001A4908604FF4E1
:10012000904501E015F50065B5F5802F21D2290035
:10013000088A40F6A7229042F4D191F84800C0B254
:100140004FF400625043B1F8481089B2090A89B2ED
:100150004FF400625143B0F5804FE3D111F50061D7
:100160000A1A4FF480412800FFF7B6FF2800FFF776
:10017000ABFF606904490860206885466068804775
:1001800031BD0000B0400E4008ED00E080B5FFF743
:10019000BDFF01BD80B500F02FF8BDE8014000F0C3
:1001A00033B8FEE7FEE7FEE7FEE7FEE7FEE7FEE721
:1001B000FEE7FEE7FEE7FEE7FEE7FEE7FEE7FEE717
:1001C000FEE7FEE7FEE7FEE7FEE7FEE7FEE7FEE707
:1001D000FEE7FEE7FEE7FEE7FEE7FEE7FEE7FEE7F7
:1001E000FEE7FEE7FEE7FEE7FEE7FEE7FEE7FEE7E7
:1001F000FEE7FEE7FEE7FEE70248016841F4700112
:100200000160704788ED00E0C046C04600F002F88B
:1002100000F012F84EF68851CEF20001086840F462
:1002200070000860BFF34F8FBFF36F8F4FF0007007
:10023000E1EE100A7047000000F00BF8002801D032
:1002400000F00AF80020C046C046FFF79FFF00F00C
:1002500017F801207047000010B50749794418319C
:10026000064C7C44163404E00A68081D511888477F
:100270000146A142F8D110BD5800000068000000FE
:1002800000F000B80746384600F002F8FBE700002F
:1002900080B5C046C046024A11001820ABBEFBE73D
:1002A0002600020010B450F8041B79B102684368BC
:1002B00012180830DC0744BFA9F10104E31852F812
:1002C000044B43F8044B091FF9D1ECE710BC70470D
:1002D000D5FFFFFFD00000000C0000001000002040
:1002E000000000002E4A106001202E4A10602E48A7
:1002F000016008202B4908602C480068C007FBD427
:10030000704770B504000D0016002948006850F0D1
:1003100001002749086006E031682000FFF7E2FF8E
:10032000241D361D2D1F042DF6D2002D09D0316855
:100330005FF0FF30EDB2EA00904001432000FFF78C
:10034000D1FF1B480068400840001949086070BD93
:100350005FF0FF31164A126852F00102144B1A6026
:10036000020002E013681940121D10F500639A4262
:10037000F8D311F1010F0BD0094908600120094998
:10038000086002200749086008480068C007FBD4DD
:1003900007480068400840000549086070470000B1
:1003A00010000E400C000E4018000E401C000E40C5
:1003B00008000E40000000000000000000000000E7
:1003C000000000000000000000000000000000002D
:1003D000000000000000000000000000000000001D
:1003E000000000000000000000000000000000000D
:1003F00000000000000000000000000000000000FD
:10400000F87B00206BF0010079F001007BF00100EB
:10401000A70A00010041000000000080000000002D
:10402000C335E1AC0000000000000000000000000B
:104030000000000000000000000000000000000080
:1040400000000000206D73B10000000000000000BF
:1040500000000000FFFFFFFF000000000000000064
:104060000000000000000000000000000000000050
:104070000000000000000000000000000000000040
:104080000000000000000000000000000000000030
:104090000000000000000000000000000000000020
:1040A0000000000000000000000000000000000010
:1040B0000000000000000000000000000000000000
:1040C00000000000000000000000000000000000F0
:1040D00000000000000000000000000000000000E0
:1040E00000000000000000000000000000000000D0
:1040F00000000000000000000000000000000000C0
:10410000F87B00206BF0010079F001007BF00100EA
:104110007DF001007FF0010081F00100000000004F
:1041200000000000000000000000000083F001001B
:1041300085F001000000000087F0010089F0010017
:10414000CDA60000136901008BF001001B6901007E
:104150004769010025690100236901003F690100E9
:104160008DF001008FF0010091F0010093F001004B
:1041700095F0010097F0010099F001009BF001001B
:104180009DF001009FF00100A1F00100A3F00100EB
:10419000A5F00100A7F00100A9F00100ABF00100BB
:1041A000ADF00100AFF00100B1F001002F69010096
:1041B00037690100AB040100B3F00100B5F0010064
:1041C000D7EF0100B7F00100000000000000000080
:1041D00000000000000000000000000000000000DF
:1041E00000000000000000000000000000000000CF
:1041F00000000000000000000000000000000000BF
:104200000298380002984400029896010298B8017A
:104210000298680002987C00029868000298960054
:104220000298D6000298F20002980801029818013C
:1042300002985C010298700100C6CC0F002106981C
:10424000AA0400F800C6CC0F00210698AA0400C5F5
:104250009C0F0021069816060698F6070698600837
:1042600000C5A00F002100F800C6CC0F0021069861
:10427000AA040698840806985A0700F800C6CC0FCE
:1042800000210698AA0410B902BA0698380300C59E
:10429000A00F002100F800C6CC0F00210698AA0448
:1042A0000698300503DC147210B902BA0698380378
:1042B00001D8087120B802A800F80698840800C543
:1042C000A40F00210698300503DC0472042506982B
:1042D00060060298B20900C6CC0F00210698AA0415
:1042E0000698840800C5AC0F002106986006029865
:1042F000B20900C6CC0F00210698AA0400C2000033
:1043000002020698360300F800C6CC0F002106987A
:10431000AA0406985A0700F800C6CC0F0021069898
:10432000AA040698300507DC0A7200C5A00F002118
:1043300000F806985A0703B900C200000200069868
:10434000380300C5B00F0021069816060698F60738
:104350000698600800C5B40F002100F800C6CC0F15
:1043600000210698AA0400C5B80F00210298B209DE
:1043700000C6CC0F00210698AA040698E60A069803
:10438000840806985A0700F80698D40500C024004F
:104390000840207800F800C6CC0F0021B11007605B
:1043A00000D80E7100C0084008407F78020C7E786B
:1043B0000698AA040298AA0800C6CC0F0021069805
:1043C000AA0400C2020200000698360304D906714E
:1043D00001B802A800C00C0F0021041301DB3471E6
:1043E0000698EC0202DB1871FC2224101128112817
:1043F0000698620B00C218000840FF20081200C097
:10440000620F00210410076007600698380B01D87E
:10441000067110DB06720298A20200BB00C55C0F99
:10442000002154155114076407644112FF321071C2
:10443000511000C11C0F00210698AC02014341122B
:104440000762FF3216715110076000C11C0F002176
:1044500020210698AC020768014300C0600F0021CC
:104460000698620B013B00C1180F00211411311096
:10447000FF300C7104610112006001DAF871311033
:104480000760FF300C7100610112006001DAF87101
:1044900001D9107200C00000100006A802B80298EE
:1044A00088010698940900B8477800F83088408859
:1044B0005088FFD8087102ECFF20F87000B802ECB9
:1044C00000CD1414108801BB4111FF31505104710B
:1044D00031400764006B10DBF07100910421FF2272
:1044E000DE720F4800950094009300A000C2640F94
:1044F000002124111114FF3402EC00C8FF24FA76C5
:104500000761113807610698380B01110822241041
:10451000112806984C0B00DC087201B8029888013B
:1045200000A000A088BA727A811204DAFC7200A09E
:1045300088BA527A00A0267000C0140F002100C46F
:104540006000084044140410014410D906710CDBCB
:10455000087200B8103C067201B8076A00BB00C1BF
:10456000100F002100C4B4500840141120391272F9
:10457000417B007CB82400C200000101281400A087
:104580000698240300C20C0F0021241220DA0672C0
:10459000617B007C0298300300C06C70084003B956
:1045A00018100110011001B9181000A0B11001D8A5
:1045B000047200A000C0287008400411108800C1D7
:1045C00000180040181000C06C70084004111088DA
:1045D00000C0147008400411108800C200002000C0
:1045E000214118103DB11088F4B842784420727807
:1045F000D8207378E82073784FB200C4FFFF808022
:10460000413A4FAA00C300004040069898030110A9
:1046100001100110011000C004700840041107616E
:1046200000C000004000003A0471084908D90E7229
:10463000311000C400007F004138015200C000006A
:104640000040003A0471044904D90E72311000C4CC
:104650000000007F4138015200C000000200003B12
:104660000A72006331424FAAA2704FAA44B801688F
:104670005378F8B853784020527800913DA90091C2
:1046800000C01470084018100091582018100091B4
:10469000BC20181000A000881DB00220015840283E
:1046A00006751EAC01EC009000A001B0076800C3C5
:1046B000700F00213414036C41500F304150081327
:1046C0000F3003640F340111C04806983E05069868
:1046D000300303DD1E7204BA00C06C0008400411F0
:1046E00010D9047106BA0C2328130478FC2302980D
:1046F000B80501DD0C7200C044000840257826781A
:1047000009DD087208230298B805411303DF067219
:104710000298200900DD067206987A0953B080BB22
:10472000006B30380A7109DD06710298A20900A0F9
:1047300000C0700F0021041003600F3000A010882B
:10474000B111076980D90A7100C1800008400811C1
:10475000009100A0B11100C2000000402039067293
:104760000298B20500C1740F0021141201DC067218
:1047700000BC247048BC00C060000840041040D851
:10478000087101B80698DC05F0DA0C720CDB0871D0
:1047900002B80698DC0500C380000840FFB801207D
:1047A00000C1780F00211411014118130142281390
:1047B000481300B80298D40500C1383008401411DD
:1047C00000C000600840041003600130056801412A
:1047D000181300A000C1740F002114120368F030F8
:1047E0002113F03331520152281100A000C02030B3
:1047F0000E40041104101050F47200A000C0000C10
:104800000000013900C028400E400A780B780412DD
:104810001142281000A00698BE0700C0F80F002122
:1048200004112EA900C0043008402178227800C06D
:10483000980F00211DB11810069890060111FF3045
:104840000769FF3151B300C4F3FFFFFF413B11592A
:1048500000290675084B027051AB06986E0700A040
:104860000698BE0700C0FC0F002104112EA9F820F5
:1048700004110698FC0500C0043008402178237814
:104880000698900600C0880F00211DB1181000A0E6
:1048900000C0FFFF00005414013C00C0BC0F002109
:1048A0000410012C0A7500B826A80698960400C0CA
:1048B000840F00211DB1181028B000C1F0FFFFFFC8
:1048C000113800C10E000000114028A800C080006F
:1048D000000000C144300840081100C0006F000013
:1048E00026A800C0043008402178050C00C0243000
:1048F0000840267800C063EF000026A8050C20ECD5
:1049000000C004300840247820EC217800C07BEF00
:10491000000026A828B000C1F0FFFFFF113800C139
:104920000A000000114028A8050C00C0043008400F
:10493000207820EC0F0C00C0984008404678417861
:104940000698EC0500C2800F0021241000C300FF70
:10495000FFFF31381140081200A00698BE0700B8CA
:1049600026A800C08C0F00211DB1181000A0A4BB08
:1049700000C17C300E40141100C0008001000039DD
:104980002871B11004D822716E7B6F7B00C060303B
:104990000E40041100C20000001021411810142024
:1049A000041101BA21411810B11002D81071707BA6
:1049B00030B8627860780DB001D8FC7100A030B8D2
:1049C00040780DB101D9FC72427800C074300E40BD
:1049D000041100C2FEFFFFFF21391810EC20041162
:1049E00000C2FFFFFFEF213918101C78A4BB707BB9
:1049F0004E7B4F7B00A008B86E784EB010D818726E
:104A000000C00E0000003EA8140C00C00F00000003
:104A10003EA802982E0800C00E00000044A8140C06
:104A200000C00100000000C1B0300E40081100C0FD
:104A300077801F003DB201423DAA00C1C40F002192
:104A4000141054A8140C00C077E01F0001423DAAC6
:104A500051B801687D7800C00000004002A800A0A5
:104A6000069824030698AC0306983003541406985D
:104A70009604F4B84578090C00C0940F00211DB1CC
:104A8000181000A051B801685D7800B844A83EA88D
:104A900000C1B0300E40081100C0001000003DB150
:104AA00001393DA908B86F7800A0541000DC1871D6
:104AB00001F801140698960400C00000010006A841
:104AC00000B8417800F80298CA0801F800C5800FC4
:104AD000002154155114FF3507644113FF34076357
:104AE0003112FF330762FF323110212B0158012AA6
:104AF0000698EC050158512804750158412818758D
:104B000051B00CD806712158067031101159012985
:104B10000675FF0FB87000C00000800006A800F8FE
:104B200000C37C0F0021341300C4E010084044127D
:104B300000C000010400013A127108242814084B37
:104B400000C458100840237C287004DBF4720DDD8B
:104B5000EE7100C1401008401410F82114110158E2
:104B600011280E7100C17810084008110760081163
:104B7000308800B806985405009300C07C0F0021CF
:104B8000041102D90A7100C16C000840247900B9EF
:104B9000181000A000C07C0F002104110449181057
:104BA00000A00698E60A11510698FC0501B8029883
:104BB000540500C0FFFF000054144115013D076477
:104BC0000764013C069896045088069822030095D5
:104BD000B11040D80C7108B8657818B8757800F82D
:104BE00008B86C7820B85A7859785B7800C1C80F3B
:104BF0000021141054A84EB010D806710298520A21
:104C00004DB100C09FFFFFFF113840B102D91472AF
:104C1000604800C1040000401112104A04BB415416
:104C20000C70204802B903BA02BB02BC4DA840A9CF
:104C3000F8B87078190C3EB141413EA9F4B97379C6
:104C40007378717800C1C00F002100C40041084092
:104C5000287000C20000010044AA230C00C200001A
:104C60000B0044AA00C1C00F002100C22000004078
:104C700004BB00C41841084000C0C83F0000141124
:104C8000113821400814050C114008140F0C2FABEB
:104C9000050C0424B11008D814711CB879787B78FD
:104CA0007A7820B879787B787A78607CF42441131C
:104CB000511406989604727B00C04C410840050CC4
:104CC000687840EC00C0900F00211DB1181000F86A
:104CD00000C068600840041100C000008000103867
:104CE000047240EC00A0015053A80698D00A4EB0C0
:104CF00010D80A7200C4F8400840087000C410417F
:104D0000084041130C23527C407BFC2301502FA808
:104D1000050C341200C1FF3FC0E0113A28130A0C01
:104D200000C000000100081406322813050C0150D1
:104D3000081408B86D7800A004D90471036002D982
:104D40000471016001D90471006000A01088041191
:104D5000033008710761FF20FC721110FF300091D1
:104D600000A010880411023006710761076111105C
:104D700000C1FFFF00001138009100A0DF02000019
:104D80000028012803280118052A0018002A012AF2
:104D90000A18292A02290000F01921B4478FA4BF5C
:104DA000A14F63FDEED6141D636032E0375EA48828
:104DB000534E6DFB6435BFF753A1811F582CD0A50E
:104DC0004540FC34F32742980C02370014070020BA
:104DD000130C110053A1811F582CD0A54540FC3461
:104DE000F3274298080100000000000013080F009C
:104DF000636032E0375EA488534E6DFB6435BFF7C5
:104E000010F01921B4478FA4BFA14F63FDEED61453
:104E10001D0000000C53696C69636F6E204C616269
:104E20007300000005020C00292A0000020A180085
:104E30000240030005020900012A000000000000F2
:104E400005020700002A00000200180028000400E4
:104E50004C07002005280300052A00000201180065
:104E600000000108000000005C4E00000200010884
:104E700000000000544E0000040002080001000081
:104E80004C4E00000A00070800030000020000006A
:104E90000000010800000000484E00000200010868
:104EA00000000000404E0000060001080000000065
:104EB0003C4E00000200010800000000344E0000DB
:104EC0000700010800000000304E0000000001084B
:104ED000000000002C4E000002000108000000004D
:104EE000244E00000900010800000000144E0000DC
:104EF0000000010800000000004E00000200010850
:104F000000000000EC4D00000180020800070000D6
:104F1000E44D00000200010800000000D04D000038
:104F20000280060800010000C84D000003000F00C9
:104F300011000000604E0000110000000B00000096
:104F4000804D000003000000984D000003000000A9
:104F50002C4F00007AB80000000000007BB8000071
:104F60000000000000000000A00042010A600706E7
:104F7000020A060700000000636032E0375EA48882
:104F8000534E6DFB6435BFF753A1811F582CD0A53C
:104F90004540FC34F32742982001000005E9010058
:104FA0002004000139E901002001000249E9010063
:104FB000200000036BE9010020000100CFEC01009C
:104FC0002001010101ED01002000010325EC010099
:104FD0002002010AA7EC01002001010B51EC0100A5
:104FE0002001010C91EC01002007030017EB0100E8
:104FF00020020301CDEA01002001030271EB010050
:105000002000030383EB01002005030493EB010060
:1050100020080305C1EB010020050306A5EB0100F4
:1050200020020307E1EA01002001030805EB01006B
:1050300020090800F30001002001080131010100EE
:105040002002080251010100200209008D5A0100CE
:1050500020010901A35A010020020902CD5A0100D2
:1050600020050903175B0100200609042F5B0100DE
:1050700020040905515C010020030906695C010058
:10508000200309074B5B0100200609087F5B010034
:1050900020040909E95B01002004090AFF5B010003
:1050A0002006090B155C01002002090C315C01008F
:1050B0002001090DC75D01002003090E7F5C01007E
:1050C0002004090F955C010020050910FF5A01001A
:1050D00020020911C55B010020070912655B010070
:1050E00020040A00B55C010020020A01EF5C010007
:1050F00020050A02575D010020050A036F5D0100CB
:1051000020040A04995D010020040A05B15D010034
:1051100020030A06295D010020020B009301010013
:1051200020020B012702010020010B027D02010079
:1051300020050B03CB02010020050B04CD0201006A
:1051400020010B05CF02010020060C009362010034
:1051500020000C0BE7620100200A0C0CB562010074
:1051600020010C0D0D63010020000D0091E90100EC
:1051700020000D0109EA010020030D0227EA0100C9
:1051800020020D033FEA010020020D0495EA010010
:1051900020030E0009ED010020010E011FED0100AA
:1051A00020000E023FED010020040E0C4FED010027
:1051B00020010F004364010020020F0199640100E7
:1051C00020020F021F65010020010F042D64010061
:1051D00020010F065964010020000F077B640100C5
:1051E00020050F08B964010020020F09D1640100F5
:1051F00020010F0AFD64010020000F0B1164010063
:1052000020020F0E3D65010020000F0F53650100C5
:1052100020011100C9ED0100200411013FEE010041
:1052200020000000F100010020020001F100010057
:1052300020020002F100010020020003F100010041
:1052400020020100F100010020000101F100010035
:1052500020060103F10001002002010AF100010013
:105260002003010BF10001002002010CF1000100FC
:1052700020030300F100010020020301F1000100FE
:1052800020020302F100010020020303F1000100EB
:1052900020020304F100010020020305F1000100D7
:1052A00020020306F100010020020307F1000100C3
:1052B00020020308F100010020020800F1000100B3
:1052C00020020801F100010020020802F1000100A3
:1052D00020020900F100010020020901F100010093
:1052E00020020902F100010020020903F10001007F
:1052F00020020904F100010020020905F10001006B
:1053000020020906F100010020020907F100010056
:1053100020020908F100010020020909F100010042
:105320002002090AF10001002002090BF10001002E
:105330002002090CF10001002002090DF10001001A
:105340002002090EF10001002002090FF100010006
:1053500020020910F100010020020911F1000100F2
:1053600020020912F100010020030A00F1000100EF
:1053700020030A01F100010020020A02F1000100ED
:1053800020020A03F100010020020A04F1000100DA
:1053900020020A05F100010020040A06F1000100C4
:1053A00020030B00F100010020030B01F1000100BC
:1053B00020030B02F100010020030B03F1000100A8
:1053C00020030B04F1000100200B0B05F10001008C
:1053D00020020C00F100010020060C0BF10001007E
:1053E00020020C0CF100010020020C0DF100010064
:1053F00020020D00F100010020020D01F10001006A
:1054000020020D02F100010020030D03F100010054
:1054100020020D04F100010020020E00F100010045
:1054200020020E01F100010020020E02F100010035
:1054300020060E0CF100010020020F00F100010017
:1054400020000F01F100010020020F02F100010015
:1054500020020F04F100010020020F06F1000100FC
:1054600020020F07F100010020020F08F1000100E7
:1054700020020F09F100010020020F0AF1000100D3
:1054800020020F0BF100010020020F0EF1000100BD
:1054900020020F0FF100010020041100F1000100B3
:1054A00020011101F1000100A0040000F100010041
:1054B000A0020001F1000100A00C0100F1000100B8
:1054C000A0040103F1000100A0000104F1000100AB
:1054D000A0020105F1000100A00B0300F100010092
:1054E000A0000301F1000100A00A0800F100010082
:1054F000A0030801F1000100A0080802F10001006A
:10550000A0030803F1000100A0030900F10001005D
:10551000A0060901F1000100A0050902F100010047
:10552000A0040903F1000100A0070904F100010033
:10553000A0060905F1000100A0030906F100010021
:10554000A0070A00F1000100A0060A01F100010015
:10555000A0070A02F1000100A0060A03F100010001
:10556000A0030A04F1000100A0030B00F1000100F8
:10557000A0020B01F1000100A0070B02F1000100E5
:10558000A0010C00F1000100A0080C01F1000100D5
:10559000A0030D00F1000100A0040E00F1000100C5
:1055A000A0080E02F1000100A0050F00F1000100AB
:1055B000A0010F01F1000100A0050F02F1000100A0
:1055C000A0020F03F1000100A0030F04F10001008D
:1055D000A0080F05F1000100A0000F06F100010076
:1055E000A0010F07F1000100A0020F09F100010066
:1055F00000000000000000000000000001000200A8
:1056000015005400A9005301A7024F059F0A00008E
:10561000020000000100000008070F000A00C80097
:1056200020000000A000000000000000A0004201D7
:105630000A200706020A0407000000000002070013
:105640000000000000000000A00042010A20070640
:10565000020A04070000000000020700000000002A
:10566000C001C001000000000100000009000000AE
:105670000000000001000000100000000100000018
:10568000000000000400000001000000080000000D
:1056900001000000100000000100000000010000F7
:1056A00001000000000800001D00000000020000D2
:1056B0001D000000000400001D00000000000100AB
:1056C0001D000000010000000000000000000000BC
:1056D00000000000000000000000000002000000C8
:1056E00000000000000000000300000000000000B7
:1056F00000000000000000000300000001000000A6
:105700000000000002000000010000000200000094
:1057100003000000000103FF04FF0200420000003C
:1057200000F04902000000000000270080841E00F5
:10573000809C2B8F28570000010000003C008A004D
:105740003C008C00F4010000FA000000960000000C
:10575000640000004B000000320000001E0000004A
:10576000140000000000000000000000731701009A
:10577000D1170100DD170100000106020100000041
:105780000C080401080000000700000002000000EF
:105790000400000000000000040000000000000001
:1057A000050000006C888391AAF5A53860370BDBF3
:1057B0005A6083BE000000000000000001000000ED
:1057C00000000000010000000000000000000000D8
:1057D00001000000000000000100000002000000C5
:1057E00002000000030000000000000002000000B2
:1057F00000000000000000000000000000000000A9
:105800000000000002000000020000000100000093
:105810000000000002000000000000000000000086
:105820000100000000000000010000000000000076
:10583000050000000100000000000000050000005D
:105840000200000002000000030000000000000051
:105850000200000000000000000000000000000046
:105860000000000000000000020000000500000031
:10587000010000000000000005000000FFC1FBE87F
:105880004C90728BE7B3518963AB23230284187267
:10589000AA612F3B51A8E53749FBC9CA0C18532C04
:1058A000FD45E300F40F010100000000F80F0101C5
:1058B00000C00300FC0F01010BC003000400010045
:1058C00001610000080001002F0000001800010025
:1058D000000000001C000100010000002800010081
:1058E000000000002C00010000000000300001005A
:1058F0000000000034000100000000003C00010036
:105900000000000040000100A00700004800010066
:1059100000000000540001000000000058000100D9
:1059200000000000A000010001480000A4000100E8
:10593000FF4C0000A800010001490000AC0001007C
:10594000FF4D0000002001000807000010200100AA
:10595000FFFFFF00182001000060DA00083001009E
:105960003FAC00002C300100AA6AF4013030010085
:10597000AA2A100034300100010000003C30010070
:10598000AB6A00004030010000000000A0400100B0
:105990007A27000FF440010020100000344101007C
:1059A0008008000038410100E68700004041010006
:1059B0004800880044410100C0E653111460010012
:1059C0001000000018600100000000841C6001004D
:1059D0001FC0010020600100C820000024600100F9
:1059E0000000000028600100000000032C6001009E
:1059F0000000000030600100C804FF0034600100B6
:105A0000A2080000386001000A0000013C600100AB
:105A10009200040040600100D6BE898E44600100FF
:105A200000000000486001008C00D40A4C600100B6
:105A30000000000050600100D1032A005460010002
:105A40000000000058600100000000005C600100E0
:105A5000040A13226060010032414A4F6460010071
:105A60000000000014700100F870020018700100BE
:105A7000000300001C7001006000D081287001004C
:105A800000008001487001003C3D00004C700100A6
:105A9000BC19000070700100050102007470010063
:105AA000130100007870010000235500FFFFFFFF85
:105AB000F40F010100000000FC0F01010BC0030006
:105AC000083001003FAC0000F4400100201000004D
:105AD000FFFFFFFFF40F010100080000FC0F0101B0
:105AE00008C003000830010037AC0000FFFFFFFFD3
:105AF000FC0F010109C003000830010037AC0000B1
:105B0000F440010020000000FFFFFFFFF44001000F
:105B100020000000FFFFFFFFFC0F010109C0030090
:105B20000830010037AC0000FFFFFFFF46480503C7
:105B300059450000784648050359640005450000B2
:105B40000000000078056400000000000645000029
:105B50000000000078066400000000000002000061
:105B60000000000000010000000000000002000032
:105B70000000000000010000000000000002000022
:105B80000000000000010000000000000002000012
:105B9000000000000001000000000000F851054571
:105BA000F946510545034805590000000000000072
:105BB0007846510545F90348055964FB04480551E9
:105BC00000000000F8510545F9984603480545587E
:105BD0005283465105455800F903480546785A64F2
:105BE000F878FE510545FB0448055100F946034885
:105BF0000559000000000000000000000000000047
:105C000078F94603480559640000000000000000D0
:105C10000000000000000000000000000000000084
:105C2000000000E1FFFFFFFFFFFFFFFFFFFFFFFF9F
:105C30000000000000000000000000000100000063
:105C4000FFFFFFFF4B60D2273E3CCE3BF6B053CC6C
:105C5000B0061D65BC86987655BDEBB3E7933AAAAE
:105C6000D835C65A96C298D84539A1F4A033EB2D41
:105C7000817D0377F240A463E5E6BCF847422CE15E
:105C8000F2D1176BF551BF376840B6CBCE5E316BA2
:105C90005733CE2B169E0F7C4AEBE78E9B7F1AFE66
:105CA000E242E34F512563FCC2CAB9F3849E17A7B1
:105CB000ADFAE6BCFFFFFFFFFFFFFFFF00000000A3
:105CC000FFFFFFFF80B5B44909684860B34829E089
:105CD00038B5B14D04462868047122462868401D35
:105CE00000F09CF92968AE480DE038B50C46AA4D85
:105CF00011462A689080947122462868C01D00F0E1
:105D00008DF92968A74800EB042041F8040B00F046
:105D100031FAA5480068001D32BD80B59E4909686A
:105D20008880A24841F8040B00F024FA9E480068DD
:105D3000001D02BD9E488008800000F2FF70C00A6E
:105D4000C00200F1100140F6A7230A889A4207D149
:105D5000098F39B10906974A490B8142116001D078
:105D600000207047012070472DE9F04FADF6A46D7B
:105D700082A8E42100F048FAC42082900DF52C7826
:105D800000208DF8A902012101208DF8AC024FF00E
:105D9000005740F6B830A8F804000125BBA8AC9025
:105DA000854C8648C8F8180085488008800000F2B5
:105DB000FF70C60A834800F087FB83480168396892
:105DC000F602012904BF00254160FFF7B3FF10B9B7
:105DD0000120386008E03DB1002038607069206023
:105DE0003068854670688047022038604FF48271C1
:105DF0007648774D684E774FDFF8DC91DFF8DCA10D
:105E0000206002A800F000FA30227549754C76A88F
:105E100000F014F9CC22744943A800F00FF943A80C
:105E200076900DF5867B02A8579000208DF808002B
:105E300076A8C8F8100082A801F093F80DF5DB7081
:105E40000190DFF8A88109E03168002008716849F5
:105E500030680160011D664800F09DF901F0BEF94F
:105E6000644A01681140A02909D0634A914258D080
:105E7000624A9142E8D0624A91425AD0EEE7362017
:105E8000FFF74BFF018841B981788DF80810C11CDC
:105E900082780DF1090000F0C1F83520FFF73DFFD1
:105EA000018881B9C11C0422684600F0B7F8BBF82C
:105EB000AA0000990843ABF8AA0001980099008B4A
:105EC0000843019908833A21306881804D49016077
:105ED000011D4C4800F04EF94B4A10210020FFF7FD
:105EE00004FF018809B9408820601021474A00203A
:105EF000FFF7FBFE018809B9408828602068002868
:105F00001CBF28680028A9D03168022008713168B8
:105F1000487130683E490160011D3D4800F02AF992
:105F20009CE7B0F805102A68914297D100F072F80A
:105F300094E70179CAF80010B0F80510C9F800100C
:105F40002268914211D1C07A28B1022802D00328D8
:105F500004D00FE00020FFF7B5FE0BE030680760CB
:105F6000011D384600F006F904E02A68914201D18B
:105F700000F050F83268D9F80000DAF8001011711A
:105F80003168A1F805000020C8713068C0F80080B1
:105F9000011D4046C2E7000014010020200400015A
:105FA0002001000220030A061801002020020D0330
:105FB000F7F401007006002008ED00E0644F0000D7
:105FC000F7F401000055080004500E4000410000A5
:105FD0006C060020200000036406002060060020FC
:105FE000344F000068060020604E000020040A04C0
:105FF00020010101F800FFFFA0000A00A000080135
:10600000A0000A0220020900784F0000884F00001B
:106010002002030100F10B01807A59E662B38B077D
:1060200008D0521E11F8013B00F8013B00F024801B
:106030008B07F6D1830740F0208000BF103A07D3CA
:1060400030B4B1E83810103AA0E83810F9D230BCBA
:10605000530724BFB1E80810A0E8081044BF51F866
:10606000043B40F8043BD20724BF31F8022B20F850
:10607000022B44BF0B7803707047083A07D3B1E88E
:106080000810083A40F8043B40F804CBF7D2530715
:10609000E4E7002A5049086800220A60002804BF8B
:1060A000012001F08AB970474C490860704700F13F
:1060B0001C025169802900D1704710B51168FF2377
:1060C00009B191F83E303C30454984780C715269F1
:1060D000C1F805204B7200230078404C88720022E2
:1060E000404808600B208BE010B53D4CA180214654
:1060F00090F83E00A07100233B4820600022374CFE
:1061000024680720A04710BD10B50346084634494F
:1061100093F83E300B714871831C1C0244EA132330
:10612000324C23430B6013462C4C24680246062055
:10613000A04710BD70B5284D82B028600024417A78
:10614000081800F110063068009001F075FC01009D
:1061500004D04968301D8847012403E03068311DB0
:1061600000F02AF8286808B101F07AF900202860C8
:10617000204676BD38B504460D4601F05DFC0100B1
:1061800004D02846BDE834404968084729462046DF
:10619000BDE8344010E0EDE710B50446082001F0FA
:1061A0007BFC10B94FF4C17010BD114904600A683E
:1061B00042600860002010BD70B504460C480668B7
:1061C0000D4604E032682946204690477668002E46
:1061D000F8D170BD00000000E0060020EC060020B1
:1061E00030090020A0070B02A0030B00A0000B0148
:1061F000E406002010B5014C02E000BFEC060020D0
:106200002468A04710BD0028002201F057BC0028D8
:10621000890001EB401000F1844002607047890062
:1062200001EB401000F184400068704700F180638A
:1062300000F1C060196002607047401CB0FA80F045
:10624000C0F11F00704710B58142A441E20F102138
:10625000DFF8400AFFF7DCFFE20FBDE8104018212D
:10626000DFF8680BD4E7DFF8301ACA6B02B10122FD
:1062700041F67133CB63D2B20B68DFF8203A1818BD
:10628000DFF84C3B984234BF4FF0807000200B6821
:1062900023F04073184308600AB10020C8637047B8
:1062A000C01C0F2834BF00074FF07040704738B54E
:1062B0000446002500F071FADFF8F42ADFF8781AB6
:1062C000944208D0DFF8EC2A944206D0DFF8E82A9E
:1062D000944204D006E0086802E0486800E088685C
:1062E00000F00700012806D01BD303280DD005D3EA
:1062F000042806D015E001F039FC04E001F03CFC74
:1063000001E001F036FC05460BE0DFF8C00A00684A
:10631000C00103D501F0ECFB850802E001F0E8FBC9
:106320004508284632BDDFF8AC1A4A68D20702D4C5
:106330000A680242FCD17047DFF89C0A0068704787
:1063400038B5DFF8982A044694421FBFDFF8902A38
:106350009442DFF8902A9442DFF88C0A2AD0DFF8C2
:106360008C2A944224D0DFF8882A94421ED0DFF889
:10637000842A944218D0DFF8802A944212D0DFF8A1
:106380007C2A94420CD0DFF8782A944206D0DFF8B9
:10639000742A94420CBF056B00250CE0C56A0AE024
:1063A000856A08E0056A06E0C56904E0856902E0DF
:1063B000C56800E00568DFF8200A04601921DFF8ED
:1063C000140AFFF72CFF0028F8D1DFF8100A8442E6
:1063D0000AD0DFF80C0A844208D0DFF8080A8442A9
:1063E00008BF25F0C06504E0022000E0012060F352
:1063F0005A65DFF8140A056031BD10B5DFF80C4AA4
:1064000031B1022911D00ED3042902D00FD310E0EC
:106410000121216060600120606100F04AF80028DD
:10642000FBD0606810BD0321F3E70021F1E70221F2
:10643000EFE7002010BD10B5DFF8D0391C6824F05C
:10644000770441B102290CD008D304290CD038BFFD
:1064500044F030040AE044F0200407E044F0400433
:1064600004E044F0100401E044F05004586042B1EC
:10647000012A09D0032A0AD0042A08BF44F00404E0
:1064800007E044F0010404E044F0030401E044F0B8
:1064900002041C6010BD10B5DFF8704908212046C9
:1064A000FFF7BDFE18B900F004F80028FBD06068C3
:1064B00010BD1021DFF85809B1E680B500F0B0F842
:1064C000401C02BD491EDFE0F8B50446201200F072
:1064D0000F000026401E09280D46DFF8387914D831
:1064E000DFE800F0051E141307202313262ADFF827
:1064F000A477C4F3043416B13046FFF714FF2A46DC
:1065000021463846BDE8F84082E6F1BDDFF80809CB
:1065100000F015F8DFF8E818FFF795FE0837E8E710
:106520001037E6E730370126E3E738371026E0E793
:1065300040374FF48036DCE7DFF8E078D9E770B514
:10654000DFF89418DFF8D8480E68DFF86428DFF821
:106550006418012510F478105AD0B0F5003F27D008
:10656000B0F5802F1ED0B0F5002F51D0B0F5202F00
:1065700024D0B0F5402F43D0B0F5602F4DD0B0F50A
:10658000801F38D0B0F5901F21D0B0F5A01F27D0C4
:10659000B0F5C01F19D0B0F5D01F1FD0B0F5F01F57
:1065A00029D039E001F0B3FA6168C1F308210AE0AB
:1065B00001F0ADFA2168C1F3082104E001F0A7FA67
:1065C000E168C1F30421491C12E0104615E01046B1
:1065D000FFF76DFEA16901F00F0107E008460CE02E
:1065E0000846FFF764FE216A01F0030105FA01F194
:1065F000B0FBF1F611E0DFF8C007FFF758FE09E045
:10660000DFF8200800F0C9F8072806D0082803D1D1
:1066100001F07DFA064600E00026304670BD00001D
:10662000031103F00F0301225B1E072BDFF89C17F9
:1066300028D8DFE803F004060A0E10141C270868A7
:1066400000E04869C0F3042070470868C0F30060A8
:106650007047C86800E08868C0F308207047DFF81A
:10666000C83798420ED1086A00F00F0006E0DFF844
:10667000BC37984206D1886A00F0030002FA00F0A5
:10668000401E7047002070472DE9F8458A460111E9
:1066900001F00F01491E0729DFF83077DFF878573E
:1066A000DFF88C67DFF88C87DFF8544773D8DFE8B2
:1066B00001F004131A21273F546501F026FAFFF771
:1066C000D2FD21464046FFF7BEFD386820F4F85061
:1066D00040EA0A20386020E0786920F4F85040EA67
:1066E0000A20786157E0386820F0807040EA0A603C
:1066F000386050E0F868304040EA0A20F8604AE02C
:1067000001F003FAFFF7AFFD21464046FFF79BFD7E
:10671000B868304040EA0A20B86001F0E9F9FFF7B4
:10672000A2FD2846FFF70BFF2146BDE8F4458AE5A8
:10673000DFF80417884225D0DFF8EC1688422AD10A
:106740005046FFF77AFD04460420FFF7ECFD386A57
:10675000000944EA001038621DE0DFF8D0168842D4
:1067600019D15046FFF769FD04464020FFF7DBFDD5
:10677000B86A800844EA8000B8620CE0DFF8B81616
:10678000884208D14FF48020FFF7CDFD386B000917
:106790004AEA00103863BDE8F185012100F00F00DE
:1067A0000128DFF8982608D0022814D0032816D034
:1067B000052820D006282BD034E0506A00F00700CE
:1067C000022804D005D3042807D01FD301E00421F8
:1067D00029E0052127E010690EE0022123E050693D
:1067E00000F00700012811D01DD3032801D0F4D3F5
:1067F00008E0062117E0906900F00700012805D0A5
:106800000228EAD0042808BF09210CE003210AE08D
:10681000106810F0010003D0012804D1082102E023
:10682000072100E00021084670472DE9F0410326CA
:10683000032700F00F000128DFF85844DFF8C08577
:10684000DFF8F45406D0022836D0032833D00528C8
:106850002FD03EE00229DFF8DC0506D003291ED048
:1068600004291ED0052922D03DE00426002701225C
:106870000121384600F070F901F047F9FFF7F3FC09
:106880006667DFF89405FFF75AFE4146FFF7DBFC29
:1068900001F0ABFA01F02CF9FFF7E5FC19E0012754
:1068A000E5E7022602274146FFF7CDFCDFE7012698
:1068B000F9E7083500E02D1D012908D0022914D080
:1068C000032919D006291ED0092929D00BE0002060
:1068D000286010212046FFF7A2FCBDE8F0411821F6
:1068E000DFF8E8049BE4BDE8F081012201210020EB
:1068F00000F032F90220EBE701220121012000F033
:106900002BF90120E4E701F0F3F84146FFF79BFC87
:1069100001220021DFF8FC04FFF77AFC0320D7E70F
:106920000420D5E7DFF8AC1418B108680028FCD1C2
:10693000012048607047DFF808050068704770B5AF
:10694000DFF89824044694421FBFDFF89424944251
:10695000DFF890249442DFF8EC042AD0DFF88C248E
:10696000944224D0DFF8882494421ED0DFF8842497
:10697000944218D0DFF88024944212D0DFF87C24AF
:1069800094420CD0DFF87824944206D0DFF87424C7
:1069900094420CBF056B00250CE0C56A0AE0856ACD
:1069A00008E0056A06E0C56904E0856902E0C5689B
:1069B00000E00568DFF88804046000F0B0F80528FE
:1069C00003D101F0A2F8FFF74EFC1821DFF8040410
:1069D000FFF725FC0028F8D1DFF800148C420AD01C
:1069E000DFF8FC138C4208D0DFF8F8138C4208BFA4
:1069F00025F0C06504E0022000E0012060F35A6544
:106A000000F08DF80528DFF8F86303D13146204601
:106A1000FFF719FCDFF83004056000F080F8052866
:106A200003D101F065F8FFF71EFCDFF8EC03FFF778
:106A300086FD3146BDE87040FFF705BC38B5DFF88C
:106A40000C341C6800F0804040F04055AC4309B164
:106A50004FF08051002A14BF4FF000550025044329
:106A6000214329431960002808BF002A0BD001F0F8
:106A700069F80446FFF7F7FB2046BDE83440DFF82D
:106A80008013FFF7E0BB31BD10B500F047F80122DD
:106A90000021022000F060F820690022022808BFCF
:106AA0000122207808B142F4807240F20111DFF82F
:106AB0009C03FFF7BBFBE27ADFF894030721FFF7A3
:106AC000B5FBA088617A41EAC022DFF88813DFF8BD
:106AD0008803FFF7ABFB207AFFF7E2FB227AE1881D
:106AE000D20142EAC121A27A114340EA01026FF0C9
:106AF0007F61DFF86803FFF799FB617B207B090367
:106B000041EA0040A17B40EA0110E17BBDE8104072
:106B100041EA0002D249D348FFF788BB044611205E
:106B20003BE600207047704710B5FFF7F7FF0022E3
:106B30000021002000F010F82078617840EAC120A0
:106B4000A17840EA01606168BDE8104040EA012296
:106B5000C549C648FFF76ABB2DE9F84F04009046C7
:106B60004ED0022C3AD045D3042C3DD071D2012610
:106B70000220B24600250029DFF89492B34F5FD07F
:106B8000022C04BF386810F0300F4FF0000B0AD110
:106B90003868C0074FF0010B05D5386820F0300089
:106BA00040F010003860FE6300F055F80028FBD07C
:106BB000B8F1000F49D0514600F04EF80028FAD045
:106BC000022C42D1BBF1000F3FD03868C0071FD55F
:106BD00001222021022000F0D0F81DE00426082028
:106BE0004FF0030A0225C6E7102620204FF0050AC1
:106BF0000425C0E7402680204FF0070A0625BAE7A3
:106C00004FF480764FF400704FF0090A0825B2E780
:106C10000021022000F092F8022000F020F8044643
:106C2000012200210220FFF797FF2146022000F0F9
:106C300037F8FE63514600F00FF80028FAD004E060
:106C4000F86300F008F80028FBD1BDE8F14F01F02F
:106C5000CCB8BDE8F18F29464846FFF7E0BA0128D5
:106C6000794906D014D3032807D00CD3042806D0C2
:106C70000EE00869C005C00D7047086800E088682C
:106C800000F07F0070477A4800684005400D70476B
:106C90000020704700400E4004000E407F4573FE08
:106CA00070B50D46012805F07F01674C494E06D0AE
:106CB00041D3032811D02AD304281BD070BDED0581
:106CC000ED0D1A213046FFF7AAFA0028F9D1206904
:106CD000400A45EA4020206170BD0D46182130462B
:106CE000FFF79DFA0028F9D12068C00945EAC010D5
:106CF000206070BD0D4619213046FFF790FA00283C
:106D0000F9D1A068C00945EAC010A06070BD534E1B
:106D1000306E606920F0300040F010006061C5F313
:106D2000C310FFF7BDFA40EA05023046BDE87040E7
:106D30005049FFF77BBA70BD80400E40434802685F
:106D400012F0300F18BF002907D0202902D03029B7
:106D500003D005E04FF4000103E04FF4400100E0F0
:106D60004549C26E0A408A42FBD1490243BFC06F07
:106D7000800A00F001000120704710B502280BD1F5
:106D800021B13E4B4FF480645C641960002A1CBF43
:106D9000BDE81040FFF7D2BF012010BD30B91F4839
:106DA000006810F0020002D00120704700207047F8
:106DB0000200180003001A0005001E00002201B1A5
:106DC00001224000411C1548FFF722BA00410E4045
:106DD000809FD50040410E401001002040420F002E
:106DE00080841E0000093D009082E00FC0CF6A0041
:106DF000405DC6000024F400C0EA210180BA8C0185
:106E00000048E80180D5430218400E4050400E4033
:106E100090400E40B0400E400005080050410E402A
:106E200008410E4006000C006006120070071400B6
:106E3000FF00FEFF0148E8018009100070400E408D
:106E4000080100203082E00F10400E4024400E4028
:106E500028400E407FF80F002C400E4030400E407E
:106E6000FFF00F0034400E407F1B000738400E40FB
:106E70009C400E40FF0700F0FF03F10764400E4006
:106E80000146DFF8900390F9000001F00BBB10B54C
:106E90001868DFF88413DFF8844348600023DFF8C4
:106EA00080030860002224680820A047002010BD4D
:106EB00010B50446002200210020FFF7BFFD052188
:106EC0001120FFF7B2FC002200210220FFF744FE50
:106ED000D448D54A01686FF3D321016002EAC42285
:106EE000016811430160012201210220FFF734FEF5
:106EF00004211120FFF799FCBDE810400122012177
:106F00000120FFF79BBD80B56A460021322001F0C9
:106F1000E5FC18B9BDF80000FFF7CAFF01BD70B568
:106F20000446C2480078A8B1C14DC2492E6809681C
:106F3000A019884201D3002070BD224600213046AE
:106F400001F048FD28682018C01C800880002860D7
:106F5000304670BD2046BDE8704000F08EBD01F0A7
:106F600045BD2DE9F04F83B0044601F000FF04F168
:106F7000A80504F1A106002C2868DFF8B892DFF814
:106F8000B0A21ABFF778002F04274FF01E0830B1C7
:106F9000CAF80000A9880818C9F800000120DFF825
:106FA0008CB2A5498BF80000062001F021FF0023D8
:106FB00000220021002001F0F1FE00233A46682162
:106FC000022001F0EBFE384602F05EFA9BF800006A
:106FD00040B1D9F80000DAF80010001F401A602113
:106FE000B0FBF1F800235FFA88F25C21012001F088
:106FF000D5FE01F02CFA02F07BFF34B9002001909D
:1070000000900123002200210DE0206800F008011B
:1070100001918008296A009100F0010080F00103CD
:10702000EA69A969686903F0FEF901F0B6FA207807
:1070300000060ED404F1D80304220021352001F00B
:1070400010FB04F1DC00436802780021362001F0D7
:1070500008FB03F015FCFFF756FF2068800900F0DD
:107060000107704800680003C00DADF802006A46D1
:107070000021342001F032FC48B9BDF80000BDF811
:10708000021088420AD017B1FFF712FF06E00DF197
:10709000020302220021342001F0E3FA00275CB150
:1070A0003078400748BF01272078400748BF0027B5
:1070B000286908B101F09AFC03F0B4FC00200190AB
:1070C00001AB6A4600212C2001F0C4FB00281FBF41
:1070D0009DF80000062800200190686A03F0E5FC96
:1070E0001CB900230022012008E020682A6A400819
:1070F00000F0010004F1D00380F00100019903F0D9
:1071000035F903F0F1FC4D484D49006808601CB1A9
:1071100004F1B30003F0FAF900214A4801F0B3F991
:107120003C490870002F0CBF0220032003F0B5FE7D
:10713000BDE8F78F80B500F055F808B1002002BD1A
:107140003E48006803F01DFF10F1010F02D14FF01F
:10715000FF3002BD4FF47A71A1FB0001C00B40EA81
:10716000414002BD80B510F1010F0FBF4FF0FF305D
:10717000C0034FF47A71B0FBF1F004F02BF84FF438
:107180007A714843C00B02BDF8B5044603F012FC07
:107190002D4D2B4E0FE072B6286810F1010F1CBF69
:1071A000401C2860384604F015F8286818B1401EC5
:1071B000286000D162B6214800683060306804F071
:1071C00081F8074603F0FFFB38B902F0C8FE01F072
:1071D00081F90028F2D1002CDDD1F2BD0120D3E7E6
:1071E0000020D1E780B501F0A5F920B91348006867
:1071F00003F0BAFE00B1012002BD80B513490A7840
:10720000904202D140F2811002BD087004F086F86D
:10721000002002BDE214002030090020EC0600200E
:10722000A004010330400E4000F80F00E3140020DA
:10723000D8060020DC0600201F6F00000820044054
:10724000740600208F6E00005C080020E41400200B
:1072500072B6DFF8CC07016811F1010F1CBF491CA1
:10726000016000687047DFF8B817086818B1401E61
:10727000086000D162B67047427A8A184272827AF8
:1072800089188172704780B5012001F0D3FDDFF8C5
:107290009417801F086001BDF8B5044600200D4614
:1072A00000900FE0707AFFB280193A46214600F054
:1072B0002EFAB07A3818B0723146684600F05FFA9C
:1072C0003C19ED1BEDB2A5B14320432DD8BF284694
:1072D00000F081F8060000D1BDE0307AC0074CBF55
:1072E00000204C20B17A421AAA4234BF471A2F46D6
:1072F000D8E70098F2BD2DE9F84304460F0008BF17
:107300004C27FFF7A5FF0025DFF81C9727B9D9F810
:107310000000002848BF0125DFF80807DFF80C77D8
:107320000068DFF80C874CB1012C2DD1396800259D
:10733000814208DBFFF797FF00203CE025BBD8F82F
:1073400000108142F6DA012001F059FD0646FFF7F0
:107350008AFF7EB300200021002200230FC6103ECA
:1073600040F00800B060B172717231607460B06852
:10737000400845EA4000B060F1604DB1D9F8000026
:10738000401CC9F8000015E0002DDCD00320DBE72D
:10739000012C03D13868401C38600BE02CB9D8F8B8
:1073A0000000401CC8F8000004E0DFF8880601680F
:1073B000491C01603046BDE8F2834C219BE710B5C3
:1073C0004C210220FFF797FF04001CBF0921FFF7A3
:1073D00053FF204610BD10B5442801DB002010BD2E
:1073E00000F109010220FFF786FF04001CBF0921FC
:1073F000FFF742FF204610BDF8B5044600200D46B9
:10740000009000261EE0607A7872A07AB872A068B8
:10741000B968400860F34101B960A068B9688008A4
:1074200060F38201B960607AA17A0A1A001900F04B
:1074300043F900F06CF9009800B9009706B1376085
:1074400024683E462CB12846FFF7B7FF0700DAD183
:1074500001E00098F2BD684600F0ABF80020F2BDF4
:1074600010B5040024D0FFF7F3FEA06820F0080058
:10747000A060C00748BFDFF8B0050BD460680128E2
:1074800008BFDFF8A80505D000280CBFDFF8A0056D
:10749000DFF8A0050168491E01602146207AC00777
:1074A0004CBF0320012001F0BBFCBDE81040DAE630
:1074B00010BD70B5DFF87415DFF8743545680A68DB
:1074C0001C68012D11D1C5687DB10CE00025456017
:1074D000521EC56895F83860761C85F8386000251E
:1074E000C560641C00680028F0D11C600A6070BD93
:1074F00010B508E0427A837AC9B29C1A8C4205DA48
:10750000C91A006851180028F4D110BD10180818C5
:10751000103010BD70B504461546207AC0074CBF28
:1075200000204C20A37AC61AB54228BFC51A1819E4
:107530002A4600F0ECF8A07A2818A072284670BD00
:107540002DE9F0425FEA000918BF00290BD00C4674
:10755000607AA17ADBB20F1A9F4206DA591A2468C0
:107560004318002CF4D1002021E0A67A0119301A2A
:107570005918C51A1031EDB202EB09064F4605E065
:10758000607AA27A0119151A1031EDB2B7420CD205
:10759000E81986423CBFF51BEDB22A463846FEF795
:1075A0003DFD2468EF19002CEAD1A7EB0900BDE8E6
:1075B000F08238B5044603E00568FFF751FF256007
:1075C00020680028F8D131BD00B9704710B50168B6
:1075D00021B900220260084610BD026003681A68E3
:1075E000002AF6D09468C4F34004002CF5D000249F
:1075F0001C60EFE770B50446607A884202D3401AF7
:10760000607217E0227AD2074CBF00224C22A37A84
:10761000D21A82188A420FDB1A1A0D1A0619A819F3
:1076200006F11001103003F081FE00206072A07A94
:107630002818A072012070BD002070BD38B5044626
:107640000D46FFF7D7FF08B1204632BDFFF7B5FE64
:1076500068B10460017AC9074CBF00214C218172D6
:10766000017AC9074CBF00214C21491B417232BD30
:10767000F8B504460D46607AA17A0A1A081A561B14
:107680008542B6B204DA0020FFF797FE070001D169
:107690000020F2BD607A001900F00DF800F036F815
:1076A000B87A3018B872A07A801BA072206838604F
:1076B00027600120F2BD281800F11001787AC01966
:1076C000704738B504000D4618BF002D0BD0207A46
:1076D000C0074CBF00204C20697AAA7AA37A521ABC
:1076E000C01A904201D2002032BD481900F11001A9
:1076F000181900F00CF8A07AA97A0818697A401ACB
:10770000A0722846FFF7ACFE012032BD3246103091
:10771000FEF784BCF8B504460F46266800203546BF
:1077200005E0B07A717A381A0F1830463668FFB221
:1077300067B15EB1B07A717A401A8742F1DA3946A0
:107740003046FFF795FF0028EBD1F2BD08B10021CC
:10775000016026602846F2BD016821B10A68026016
:107760000020086001E000220260084670470168BE
:1077700019B10A680260084672E601607047026843
:1077800012B901607047024610680028FBD11160F1
:1077900070472DE9F8430400884618BFB8F1000F80
:1077A000164600D00EB9002022E0A14600E0814636
:1077B000D9F800000028FAD14D4637460EE03A4687
:1077C00041462846FFF7A6FEC0B23F1A4D451CBFF2
:1077D000C9F80050A946FFB28044002537B11DB951
:1077E0006068FFF7EAFD0546002DE8D1F01BC0B246
:1077F000BDE8F28338B505680C4615B9046031BDA3
:10780000054628680028FBD1206818B1204600F002
:1078100052F803E02846FFF754FF00B92C6031BD51
:10782000026802B10A60016070470A0001D1704726
:107830001A461368002BFBD1036813600160704780
:1078400038B504460D4604E06D1A01682160FFF763
:1078500007FEEDB24DB1206838B1427A817A891ABB
:1078600089B28D42F0DAA918417231BD70B5044673
:107870000D46206810B970BD00203060EDB2CDB16A
:107880002068002816D0002601E006460846016858
:107890000029FAD1417A827A531A9D4202DA511BA9
:1078A000817270BDAA1A8D18FFF7DAFD002EE3D1A0
:1078B0000020206070BD70B5044642E0A27A617A73
:1078C000801A50FA81F5ADB2002D39D069B1521A43
:1078D000081900F1100104F1100003F027FDA07A4F
:1078E000617A401AA07200206072206840B38168FB
:1078F000C1F3400121BB417A827A521A92B22E46DC
:107900009542C8BF1646081800F11001607AA37AA4
:1079100000191818FFF7FAFEA07A3018A072AD1BF4
:107920002068417A71184172ADB22068817A427A3A
:10793000891A03D101682160FFF792FD002DD4D18F
:1079400024682CB1207AC0074CBF00204C20B5E73A
:1079500070BD70472DE9F94D82B000240298009463
:10796000002888464AD006460027A246002523E084
:10797000A8EB0A0B5FFA8BFB57B9029840684146A7
:10798000FFF7B9FC070033D039466846FFF7F7FE2A
:10799000707A8019FFF78FFE50445A46FFF7B7FE02
:1079A000B87ADA4458445FFA8AFAB8725D44C2453C
:1079B000EDB204BF0027A246707AB17A0A1A954246
:1079C0000FDA521B13464245C8BF4346A8EB0A0CC8
:1079D0006345CDDA4245AEBFC346081AA0EB050B9E
:1079E000C8E73668002EC1D1009C0020009004E05A
:1079F000009810B16846FFF7DCFD204604B0BDE8F2
:107A0000F08D0A480A490068096840EA01200949DE
:107A1000096840EA01400449096840EA016070478A
:107A20005C0800200C010020FC060020F00600206D
:107A3000F4060020F806002001B40E4800E00830EB
:107A4000416899B101789DF8002001F0F80102F039
:107A5000F802914202BF81789DF80220914202BF54
:107A6000C1789DF803209142E9D100E0002001B0E7
:107A700070470000984F0000704738B5C01C84085C
:107A8000A00003F08FFC050001D1002032BDA10051
:107A900003F0E0FC284632BD38B50446FFF7EDFFA1
:107AA00005001CBF214603F0D5FC284632BD03F07B
:107AB000D5BC022862F30F2262F31F4200B500BF5B
:107AC000130096469446103928BFA0E80C50FAD807
:107AD0005FEA417C28BF0CC048BF40F8042BC907AF
:107AE00028BF20F8022B48BF00F8012B00BD022858
:107AF00080B500F00CF82749274A0968C1F308212E
:107B0000491CB0FBF1F0106002BD244870472448C6
:107B1000016801F00701022909D00AD3042901D024
:107B200002D306E01F4905E04FF4004103E01E497F
:107B300000E01E490968C06EC0F30420401CB1FB80
:107B4000F0F07047184800687047174908601448FB
:107B5000006800F00700022808BFFFF7C9BF7047A0
:107B60001348016841F47001016070474FF4004010
:107B700070474FF47A7070470A48006870470949A7
:107B800008600748006800F00700042808BFFFF7F6
:107B9000AFBF704708410E40E806002000F04902E0
:107BA00094400E4004010020000100200801002044
:107BB00088ED00E0890001EB401000F18440026094
:107BC0007047890001EB401000F184400068704765
:107BD00010B5DFF8E807016845F60E0202600023E1
:107BE000DFF8DC271268D40748BF0123D40648BF5A
:107BF00043F01003540648BF43F04003540748BF06
:107C000043F00403D205DFF8BC2748BF43F4807378
:107C1000D363DFF8B4371B7803F00703022B10D0CF
:107C20001ED3042B08D01BD213689B0018D4D36E2C
:107C30001B06FCD5032312E0D36E9B05FCD5042361
:107C40000DE0D36E1B07FCD5136813F0300F05D180
:107C5000D36E03F44003B3F5400FF9D1022313654B
:107C6000C90744BF0021016010BDDFF86017DFF8CD
:107C7000602738B110680860106820F47F4040F435
:107C8000EE4000E008681060DFE0DFF848070168B8
:107C900001290BD1DFF840170A6802F00302012A1C
:107CA00002D1CA6BD203FCD502210160704738B5FE
:107CB0000446DFF82807DFF808270168DFF80857CF
:107CC00011604068288000F047F8FFF7DEFF30BF02
:107CD0000020FFF7CAFF002C1CBFBDE83140FFF7B2
:107CE00077BF287800F0070001281CBFBDE83140AD
:107CF000FFF7FEBE31BD38B50446DFF8E406DFF815
:107D0000C026016BDFF8C056116045F60E03416BCB
:107D10002980DFF8A8160A680B604FF4207303600F
:107D2000D00744BF0020086000F016F8FFF7ADFF51
:107D300030BF0020FFF799FF002C1CBFBDE8314089
:107D4000FFF746BF287800F0070001281CBFBDE8F8
:107D50003140FFF7CDBE31BDDFF88806016841F044
:107D600004010160012080E7F8B5DFF87C46206956
:107D700020F4403040F4003520694AF6E85740F4DA
:107D8000403627602069C00708D4A06B00F00300CC
:107D9000012812BF0228002000F095F82069C007D2
:107DA00006D5DFF848060760816841F080018160F0
:107DB0000120FFF75AFFFFF768FF04202561401EEE
:107DC0002661FBD12561F1BD80B5012201E080B5BE
:107DD00000220021DFF81806FFF7ECFEBDE80140A5
:107DE000C2E7DFF8101608607047DFF8F005DFF82B
:107DF000D025016811604068DFF8CC150880704715
:107E00000078DFF8F4150028086812BF40F0010080
:107E10004008400008607047DFF8D4150A6803780E
:107E2000920992010BB142F0040243780BB142F087
:107E3000020283780BB142F0080243680BB142F0B2
:107E400001028068104308607047DFF8B025DFF852
:107E500080050168128802F12803C1F3032103EBB6
:107E6000D373491C02EB6302283201EB8103B2FB9E
:107E7000F3F2521E072A34BF12064FF0E062036885
:107E800023F0EE631A4342F480120260DFF870259B
:107E9000B2F90020002A15D492B202F1280303EBB4
:107EA000D37302EB63024B08283203EB4101B2FBB0
:107EB000F1F1072934BF09017021426822F07002F4
:107EC00011434160704710B50446DFF83805416A38
:107ED000C907FCD4220018BF01220D21FFF76AFE5A
:107EE000DFF8F4040168890844EA8101016010BDEB
:107EF00070B5044682B02068DFF80C150860096888
:107F000001F00F01814240F08980DFF80005006830
:107F100010F1010F13D0DFF8F80441680268116016
:107F2000C16882681160416902691160C169826932
:107F30001160416A026A1160C16A806A0160A089A9
:107F40004B28B8BF00200DDBB0F5FA7FB8BF4FF06B
:107F5000805007DB40F6C4118842B4BF4FF0005098
:107F60004FF04050DFF8AC54DFF8AC342969B4F975
:107F700014201940D243084340EAD2702861286B8C
:107F800040F080702863042000F053F9686A20F004
:107F9000C0406862286940F006002861DFF87C0470
:107FA0000068C0F30746684603F098FAA6F110008F
:107FB0000C2803D3512E18BF532E19D19DF8010060
:107FC000012815D19DF80000032811DADFF8040418
:107FD000016869B9A968DFF8482441F00101A96086
:107FE000696A1140DFF83C24114369620121016094
:107FF000B4F91400E189DFF804241180DFF80014DB
:1080000008806089DFF820140880608900F0DEF8BD
:1080100020890122012100F00FF808B9002076BD67
:10802000226902B1012205212846FFF7C3FD6068DD
:10803000FFF749FF012076BD2DE9F74FDFF8C803B0
:10804000016801F00F0100260229B44640F0AF801C
:108050000099A1F5E161B1F5966FF7D80021DFF83D
:10806000CC2300E041B99DF80430002B09D051B970
:1080700000F12C03012409E0012904BF9DF8083018
:10808000002B00F09B8000F124030824009DB5F52F
:10809000E16F0ED94FF0010E4FF4E16840F6B839A8
:1080A00059B315684FF0020A4FEA156CC5F307463D
:1080B0006DE04FF0000E4FF496684FF4E169F24620
:1080C000E9B9456905F0405555EA0A0722D07F1EF7
:1080D00011D06FF0704BB7EB0B071DD07F1E13D084
:1080E000B7EB0B071AD07F1E10D0B7EB0B071AD0D7
:1080F0007F1E0DD01CE0D66811E0F246E1E715685E
:10810000C5F3072CEEB242E0D6680DE0166906E032
:10811000166909E0566802E0566805E09668C6F3FD
:10812000072CF6B204E096684FEA166CC6F30746D1
:10813000BF4F3F68FFB2042F08DA5569BEF1000F48
:108140000CBF5FFA85FEC5F3072E13E0D2F818E0E6
:108150002D0F0DD0022D05D007D3032D27D14FEAC7
:108160001E6E07E0CEF3074E04E0CEF3072E01E0CB
:108170005FFA8EFE4FEA0E3E3EF4704517D1456B16
:1081800025F470454EEA0505C84545630FD2009DAC
:10819000A5EB080EACEB060505FB0EFEA9EB0808E7
:1081A000BEFBF8F8B044C44528BFB04501D200205A
:1081B0000AE008FA04F44AEA04041C60491CC9B243
:1081C0000229FFF64FAF0120BDE8FE8F10B58049B0
:1081D0004B6A0C68E4074FF0FF3203F0070312D537
:1081E000022B10D3142815D3143814281FD30F22B0
:1081F000086820F47F4040EA022040EA023008602C
:10820000BDE8104021E60C68E40709D4022B07D230
:108210000A2801D20322EBE70A380A2807D3E6E747
:108220000C68E407E4D5022BE2D22828DFD207222B
:10823000DEE738B50446664D00212846FFF7C1FC4D
:10824000686AC00844EAC0006862BDE83240764807
:108250000088BBE76C480F210160016CC907FCD4A2
:108260000321816001680F2903BF80680328012072
:1082700000207047A0F59660C82202FB110014216F
:10828000B0FBF1F07047B0B500F064F80302276866
:10829000684943EA05322FB1022F19D014D3032FB6
:1082A0001AD0B0BD227A02B10422677A07B108273A
:1082B000000440EA055040EA053018431043A27A12
:1082C000384310430860B0BD00F016F84860B0BDF8
:1082D00000F012F88860B0BDE07A00B11020237A77
:1082E00003B10423657A05B1082510431843A27A27
:1082F00028431043C860B0BD207A00B10420637ADF
:1083000003B108231043A27A184310437047F8B50D
:1083100000F020F80646A068A0F59661C82291FBFF
:10832000F2F73946FFF7A6FF216891B9217B01B129
:108330000421627B02B10822330443EA055343EA75
:10834000073343EA00200843A17B1043084339491F
:108350000860F1BD0446C8226068A0F5966191FBF3
:10836000F2F5294686E7334B28B1022809D006D317
:10837000032808D070470A46002118461AE41B1D3E
:10838000F9E70833F7E70C33F5E780B528B10228A1
:1083900007D004D3032806D007E0012106E002211C
:1083A00004E0032102E0042100E000212248FFF75D
:1083B00008FC00B10120C0B202BD000080410E40A7
:1083C0000407002024400E40D0140020080700209D
:1083D0004C300E400007002040300E4090400E40D0
:1083E00060400E4010ED00E008300E4090310E402D
:1083F00018300E400C300E4000300E40D2140020D9
:10840000D614002054300E4038300E401C83E00F4C
:108410003880E00F3C300E40FEFFFFCFFC81E00FC4
:10842000000F0EF0B4C0400BD41400201883E00FEE
:108430000082E00F90300E4004300E40890001EBC6
:10844000401000F10850026070470122F6E73C48F6
:108450000021002206C028213A48FDF7D5BE384940
:108460004868C04390FAA0F0B0FA80F0C0B2052886
:1084700002DB4FF0FF3070474A68012383401A4304
:108480004A6040B2704770B504460D46FFF7E7FFFB
:1084900006462C482A46214600EBC60002F008FE9C
:1084A000304670BD10B5052809D200F009F852E831
:1084B000003F0B4342E80034002CF8D105E010BD2A
:1084C000204A02EBC002121D7047BDE81040C1B245
:1084D0001B48BAE7F8B51B4C1B4D194E00E028703D
:1084E000306830B32F780121B94008421AD00022F9
:1084F00039463046FFF7A2FF04EBC700001D0022FB
:1085000050E8001F40E80023002BF9D1080000913B
:1085100008D028780D496A4604EBC00002F00FFE2F
:108520000120F2BD28787168884234BF401C0020C9
:10853000D5E7F2BD0248006800B101207047000095
:10854000E8080020F0080020E614002078563412D5
:1085500010B5044602F0E1FF0021201D02F0E2FF09
:10856000012104F1080002F0DDFF221D00F028FACD
:108570000146204602F0D6FF002010BD4105490DFE
:108580000831B1F5006F04D280884FF6FF71884240
:1085900001D1012070470020704710B502F0B8FFEC
:1085A000DFF82844206800F00AFA21680968884248
:1085B0001CBF2068FFF7CCFF606800F000FA61681C
:1085C000096888421CBF6068FFF7C2FF20684068E6
:1085D0006168496888428041DFF8F413C00F087071
:1085E00010BD2DE9FC4104464FF6FF75AC4214BFA7
:1085F000002840F212200E462AD000F0D7F850F89A
:10860000218008F10C073846FFF7B8FFF8B9B888A1
:10861000304006EA040188420ED1D7E90001CDE9D5
:108620000001ADF80650BDF804006840ADF8040044
:10863000381D019902F076FFB87900F005F907EBD3
:10864000800000F10807F80A00F004F8DBD00020F1
:10865000BDE8F68108F10C01C002C90AB0EBC12FD8
:1086600070472DE9F84D0EB480464FF6FF708045F7
:1086700014BFB8F1000F40F212200D4616461F46F7
:1086800023D000F093F850F8210000F10C044FF0D3
:10869000000B00F10C0A2046FFF770FF002832D1D2
:1086A000A079011D221D00F08CF92168884204BFC9
:1086B000A08840451CD1A079864207D10298324655
:1086C00004F1080102F034FF002866D0D4E900016B
:1086D000CDE90001BDF804004FF6FF714840ADF848
:1086E0000610ADF80400201D019902F01BFF83461F
:1086F00000F0E8F800F054F808BFBBF1000FCAD052
:10870000BBF1000F48D1002E46D054FA86F0083055
:10871000C00A00F045F80ED000F0FBF804466005F2
:10872000400D05D050FA86F00830B0F5006F02D940
:1087300040F2015031E046EA0520ADF80480ADF882
:108740000600251D0199A046284602F0EBFE2C1DCF
:1087500000250FE03878797840EA0120B97840EABE
:108760000140F97840EA0161204602F0DBFE3F1D3E
:10877000241D6D1C30B9F01C411000EB9170B5EB5D
:10878000A00FE7DB08F10402311D00F01AF90146E1
:10879000404602F0C7FE8346584604B0BDE8F08D5F
:1087A000C0024FEADA21B0EBC12F704788498748F1
:1087B00091F9001070472DE9F0470C46844991F972
:1087C00000100746814850F821A0154699460AF145
:1087D0000C0846463046FFF7D1FEE0B9B079011DDE
:1087E000321D00F0EEF83168814218BF7F1CF0881E
:1087F000FF2190FBF1F1C1EB0121401A00F024F8B8
:1088000008EB800000F108084FEAD8200AF10C01BB
:10881000FFF722FF02D040F2025012E03846471E16
:10882000C0B20028D5D1B088208015B1F088000AE8
:108830002870F08889F8000006F10800089908609F
:108840000020BDE8F087A879C01C411000EB9170B2
:10885000801070472DE9F8430D465D4991F90010ED
:1088600081465A4850F8218016461F4608F10C04EC
:108870002046FFF783FEE0B9A079011D221D00F01C
:10888000A0F82168884204BFA08848450CD184B173
:1088900015B1E088000A2870E088307004F1080003
:1088A00038600020BDE8F28300F00CF8FFF7D2FE3C
:1088B000DED00DB10020287000203070386040F20A
:1088C0000250EFE7A079C01C411000EB91708010BE
:1088D00004EB800000F10804E00A70471CB5144660
:1088E0006B4601AAFFF7B6FF10B99DF8040010B956
:1088F00040F2025016BD0098007820809DF80410C8
:10890000022904DB0099497840EA012020800020F8
:1089100016BD2DE9F0472E4C2C4994F9000051F872
:10892000209080F0010051F82070384602F0F5FDEB
:1089300009F10C0A07F10C0805E0FFF784FF0AEBC8
:10894000800000F1080A4FEADA2009F10C01FFF774
:1089500083FE1BD155462846FFF710FEB0B9A87913
:10896000011D2A1D00F02DF829688842E5D1002656
:10897000FFF769FF801C8642E5DA5AF8041B40467F
:1089800002F0D0FD08F10408761CF1E7D9F80400E4
:10899000411C381D02F0C6FD012107F1080002F05C
:1089A000C1FD3A1D00F00CF80146384602F0BAFD50
:1089B000207880F0010020704046BDE8F087021D5D
:1089C00008214FF0FF3002F0E5BD000064010020F7
:1089D0006C01002010B5044610460A4601462046A8
:1089E00002F0F0FD204610BD02F024BE02F03BBEB6
:1089F00080B502F02DFF00281CBFBDE8024003F047
:108A0000A7B8C2E038B500F047F8050000D17AE019
:108A1000204603F0EFFD10B94FF4C07032BD21467F
:108A200028462269BDE83840D2B203F01CB910B51F
:108A300000F032F800B90EE02146BDE8104003F026
:108A400038B910B500F028F800B904E02146BDE8B7
:108A5000104003F0B8B940F2011010BD70B500F03D
:108A60004EF8060000D125E0284603F0C3FD00B90A
:108A700037E02A46214630462B69BDE87040DBB21C
:108A800003F037BA10B500F007F800B9E3E7214664
:108A9000BDE8104003F04BBA0C4602F0D9BE70B5E9
:108AA00000F05BF800B905E000F053F8BDE8704055
:108AB00003F0C6BA40F2011070BD70B500F01FF8A7
:108AC000060000D1F6E7284603F094FD00B908E05F
:108AD0002A46214630462B69BDE87040DBB203F0E0
:108AE000D1BA4FF4C07070BD38B500F008F800B9C5
:108AF00009E02A462146BDE8384003F0E1BA0C46B9
:108B0000154602F0A5BE40F2011032BD70B500F06E
:108B100024F800B9CEE700F01CF8BDE8704003F07F
:108B2000E5BA70B500F019F800B9C3E700F011F824
:108B3000BDE8704003F0F0BA70B582B000F00DF8F7
:108B400000B9C7E00699009100F003F803F0F2FACB
:108B500076BD33462A46214670470C4615461E46CA
:108B600002F076BE10B5FFF797FF00B973E7214614
:108B7000BDE8104003F0F5BA80B502F069FE0028A8
:108B80001CBFBDE8024003F023BD40F2011002BD4E
:108B900010B5FFF781FF00B95DE72146BDE8104041
:108BA00003F066BB70B5FFF7D8FF00B982E7FFF7A7
:108BB000D0FFBDE8704003F06DBB38B5FFF79FFFF5
:108BC00000B9A0E72A462146BDE8384003F0D9BAEB
:108BD0007CB50E4615461C46014601AB6A46002090
:108BE00003F0A1FF0146019828B1002020800198E0
:108BF00000F5806076BDBDF80000B04204D20020D0
:108C0000208040F2074076BD801BADF8000071184F
:108C10002088BDF80020904238BFADF80000BDF8B4
:108C2000000018B102462846FDF7F8F9BDF800002B
:108C30002080002076BD38B50C46154604F09EF81D
:108C40004FF6FF71884204D10020288040F2014095
:108C500032BD01044CBF102102212980214603F0BE
:108C6000FFFC002032BD2DE9F04104460D46904640
:108C70001F460020FEF7A1FB060008BF4FF4C1709D
:108C800019D0307AC0074CBF00204C203A469042A1
:108C900038BF4FF4C0700ED3B7724146707A801956
:108CA0001030FDF7BBF9FFF754FF002003F077FF0A
:108CB00008B100F58060BDE8F08170B582B0FFF7C3
:108CC0004CFF00B906E0069B00953246214604F0B1
:108CD00043FD76BD40F2011076BD38B5FFF70FFFBA
:108CE00000B910E72A462146BDE8384004F051BDDE
:108CF000F8B50024FF280D4616461F4606D002F0A0
:108D0000A7FD040002D140F20110F2BD3B463246FD
:108D10002946204601B0BDE8F04004F0E2BC70B541
:108D20000C4615461E4678B10146204603F069FC04
:108D300002464FF6FF70824206D005B90125014672
:108D4000284603F0D7FF10B940F20A4070BD002E4C
:108D50000EBF40F201403080002070BD103032283C
:108D600004D20C4A41F0010142F82010704710B5BE
:108D70000948084B0168002253F822401CB951F8F9
:108D8000224043F82240521C322AF5D343F00051CE
:108D9000016010BD0002002008ED00E070B514462F
:108DA000C91C4FF6FC721140C91C02EA0105284992
:108DB00001EB00160020274935807480F06004FB29
:108DC00005F009688847706015FB04F1318189B2AC
:108DD000706802F03FFB002006E07168F26800FB5B
:108DE0000511401C0A60F160A042F6DB748070BD82
:108DF000184A1160506001011548FDF705BA144981
:108E000001EB0011C86820B10268CA604A88521E8E
:108E10004A8070470E4901EB00104088C0B270478D
:108E20000B4A02EB0010C2680A60C1604188491C0D
:108E30004180704700010649425A2AB14218405AFF
:108E4000128992FBF0F0704700207047000000008C
:108E5000780600202809002072B6DFF8600D01684E
:108E600011F1010F1CBF491C016000687047DFF859
:108E70004C1D086818B1401E086000D162B67047EA
:108E8000890001EB401000F1085002607047012298
:108E9000F6E70022F4E750E8002F0A4340E80023F9
:108EA000002BF8D1704750E8002F8A4340E8002398
:108EB000002BF8D1704790FBF1F201FB1200002863
:108EC00048BF08187047002814BF01F1840001F161
:108ED000A8007047CC307047006A70472030DAE74E
:108EE0002030E0E790F965007047012904D017D3DE
:108EF000032906D00DD313E0818C828E008E1201DF
:108F000003E0818C008E4FF47A4292FBF0F040181F
:108F100004E0818C408E01EB4000C01D80B27047A0
:108F2000808C704770B504460D46164600F027FE4B
:108F300040F27121636801FB06F201FB053194F8F0
:108F40002030A1EB10211B07616006D5216F400086
:108F500000EB02204018206770BD01EB52006060FA
:108F600070BD816F00291EBF8968C1F3800100298F
:108F700008D1C06F00E0006828B18168C1F38001AA
:108F80000029F8D00120704780F86410704710B5B0
:108F9000044600F065FA204600F016F8BDE81040DF
:108FA000012101FA00F001F075BDDFF8641D0A7FB0
:108FB000904207D24968FC2202FB001090F8201072
:108FC000C90600D400207047DFF8441D4A68801AA3
:108FD000FC2290FBF2F0002802D4097F884201DBDA
:108FE0004FF0FF3070472DE9F043804608F120052F
:108FF00085B02868DFF8187D410208F15C0629D5A4
:109000008108C00800F0010901F0010400F0BAF87D
:109010000021049108F15E03317803912246A98A68
:10902000029180B2698A0191298A490800914946D2
:1090300005F009F800281AD04FF4800100F0A0F8DC
:109040003878C00706D50020FEF7B7F9014640463C
:1090500005F029FD2868C0010ED500F093F8298A93
:10906000AB8A6A8A490880B204F0CEFF00287AD021
:109070004FF0807100F084F82868800108D54046E0
:1090800005F0B5FF00286ED04FF0007100F078F8C1
:10909000286840010BD500F075F8002180B205F07A
:1090A00028F800285FD04FF0806100F069F8286848
:1090B000C0001CD500F066F8317B002280B204F0BD
:1090C000F8FF00284FD04FF0805100F059F8787F1A
:1090D0001C280CDB0521404600F03CFE38B1002086
:1090E000FEF76BF918B10146404605F03AFD2868D5
:1090F000800016D5F07AC00000F17007B07AC00089
:1091000000F1700400F03EF8BFB20097F37AB17A34
:10911000A2B280B205F003F828B34FF0005100F07E
:109120002FF8286800010AD500F02CF8317A80B2B7
:1091300004F0DFFFB8B14FF0006100F021F82868BB
:10914000400006D54FF0804100F01AF8404606F086
:109150001DF8286800020FD500F014F8317A80B2AB
:1091600005F04EF808B9002007E04FF4000100F0C8
:1091700007F8404600F0F3F9012005B0BDE8F083A0
:10918000284690E640461FE710B50C4658B1801EB1
:1091900015D0401E22D0401E1AD0401E14D0401EB2
:1091A000052819D910BD204600F05FF9204600F0CF
:1091B00003FB6168BDE81040012006F0E0B906F04D
:1091C0000FFBA0420CD139E02046BDE810400BE176
:1091D000204600F027F935E0012100E0002137E0CA
:1091E00010BD10B50C4658B1801E15D0401E22D0BF
:1091F000401E1AD0401E14D0401E052819D910BD9B
:10920000204600F032F96168206FBDE8104001EBA4
:109210001022012006F051B906F0E2FAA0420CD16A
:109220000CE0204600F0E0F80CE02046BDE81040DD
:10923000F8E0012100E000210AE010BDBDE8104087
:1092400006F082B8BDE810400521DFF8C80A20E624
:109250002046BDE8104058E0DFF8B41A0A7E5206F6
:1092600009D590F82020120705D54969891E41606B
:109270004FF400610167704770B50446002594F80B
:10928000200000070DD5606FE18C4843216F42003C
:10929000050A02F580725118080A00F54870216726
:1092A000E06040F27126208E401E70432061012153
:1092B000204606F0FAF9218EE28C6068514306FBE5
:1092C0000100401B6060204606F0D3F9BDE8704005
:1092D00006F052BA00F118018A8B0B8B120392FB35
:1092E000F3F2222392FBF3F230F86C3FC06810B126
:1092F00003EBD3704308180290FBF2F0C0F140007A
:109300001E28B8BF1E20087070472DE9F0475FEA9D
:109310000109804604D006F017F84046FFF79CFF8D
:1093200008F120054046A988DFF8E44905F061F816
:10933000B9F1000F824608F15B0608F16C0705D011
:10934000207E800702D500F052F909E0388838B94C
:109350002868C0054CBF08203E2070724FF0000AFC
:109360004046FFF7B7FFBAF1000F0CD14FF40001F0
:109370004046FFF70CFE0121404606F096F9BDE895
:10938000F04706F0F9B9B9F1000F18D028680107C5
:1093900015D5698A99B110F4C02F10D1207E8007AD
:1093A0000DD5386958B9A988404605F086FE698A06
:1093B000012802DB4A1C904202DB481C00E001202D
:1093C000E880A988E8884118A9803988091A398075
:1093D00025213378B27858438018FFF76CFDB070C0
:1093E0004046BDE8F04747E738B5044605F073FF4F
:1093F00040B10146204600F02AFA0121204600F043
:10940000BCFA18B12046BDE834402CE000F022F848
:10941000451EAD41204600F0CFF9E80FBDE83240CF
:1094200006F0C7B810B504464FF4803100F018F8C4
:109430000021204600F0A1FA18B12046BDE81040F6
:1094400011E000F007F8401EBDE810408041C00F59
:1094500006F05CB8DFF8B808806900F480707047E7
:1094600004F1200017E501214FE7DFF8A4282021AF
:10947000916100F1280190F85D300A684968181878
:1094800090F8360005F0D8BF70B50446FC2514FBF3
:1094900005F10023012289B20520FFF77FFCDFF8E8
:1094A000706834770520FFF7AAFC706005FB04F1B3
:1094B000FCF7AAFE002003E05318FC335350401C75
:1094C000631E7168984205FB00F2F5DB00205050E6
:1094D0007068B06070BD10B5DFF83448E068B0B9AE
:1094E0000220FDF76AFFE06002218172E068427AA3
:1094F000817A1018891A103001F0ACFFE068417AC7
:109500000818012130F8102F61F30102028004F1E4
:109510001000FEF74EF81B2060770020206010BD81
:1095200010B5FFF799FCDFF8E80784680CB12168F3
:109530008160FFF79CFC0CB9002010BDFC21204687
:10954000FCF762FE04F165001B21417081707F21F0
:1095500001700320606100202062204610BD10B51C
:10956000044605F0FBFD04F17C00FEF722F804F14F
:109570008000FEF71EF8A06F18B1FDF771FF002004
:10958000A067FFF769FCDFF88807816821608460C5
:10959000FFF76DFC0020206210BDF8B5044604F111
:1095A00020054800298A002680B281421CBF2882FB
:1095B0000126688A90421CBF6A820126A88A9842C6
:1095C0001CBFAB8201262878000704F16C0705D583
:1095D000298A204600F0D3FAB8603EB100F007F8BF
:1095E0004FF080712046BDE8F440D0E4F1BDA88A78
:1095F000298A000190FBF1F03880704730B50021D6
:1096000000220125931002EB5373DB101C5CA2EBCC
:10961000C30305FA03F31C4204D0491C022901D1FB
:10962000012030BD521C252AECDB002030BDF0B5F6
:109630008AB000220025AC1005EB5474E61001241A
:1096400000F021F81CBF02F80D50521C6D1C252D96
:10965000F1DB0025AE1005EB5676F61000F013F89E
:1096600003D02E1886F8365008E095FBF2F602FB80
:1096700016562F1816F80D6087F836606D1C252DCC
:10968000E8DB0AB0F0BD775CA5EBC60604FA06F687
:10969000374270472DE9F0471E4682460AF104071B
:1096A000306878620D46904606F110015046FFF78B
:1096B000BEFF0322311D0AF12C00FCF7AFFC089914
:1096C00006220AF15E00FCF7A9FC099810B10421FA
:1096D00000F06EF8102100F06BF84FF48001504656
